:100000000C941C010C9445010C9445010C94450181
:100010000C9445010C9445010C94221A0C94511A2D
:100020000C9438190C9467190C9445010C944501F3
:100030000C9445010C9445010C946A050C944501FF
:100040000C9445010C9445010C9445010C94450118
:100050000C9445010C9445010C9445010C94450108
:100060000C9445010C9445010C9445010C944501F8
:100070000C9445010C9445010C9445010C944501E8
:100080000C9445010C9445010C9445010C944501D8
:100090000C9445010C9445010C9445010C944501C8
:1000A0000C9445010C9445010C9445010C944501B8
:1000B0000C9445010C9445010C9445010C944501A8
:1000C0000C9445010C9445010C9445010C94450198
:1000D0000C9445010C9445010C9445010C94450188
:1000E0000C9445010C9445010C9445010C94450178
:1000F0000C9445010C9445010C9445010C94450168
:100100000C9445010C9445010C9445010C94450157
:100110000C9445010C9445010C9445010C94450147
:100120000C9445010C9445010C9445010C94450137
:100130000C9445010C9445010C9445010C94450127
:100140000C9445010C9445010C9445010C94450117
:100150000C9445010C9445010C9445010C94450107
:100160000C9445010C9445010C9445010C944501F7
:100170000C9445010C9445010C9445010C944501E7
:100180000C9445010C9445010C9445010C944501D7
:100190000C9445010C9445010C9445010C944501C7
:1001A0000C9445010C9445010C9445010C944501B7
:1001B0000C9428160C9445010C9445010C944501AF
:1001C0000C9445010C9445010C9445010C94450197
:1001D0000C9445010C9445010C9445010C94450187
:1001E0000C9445010C9445010C9445010C94450177
:1001F0000C9445010C9445010C94450123112311E5
:100200002311701158116D11231123117011581100
:100210000C947A0A0C9458110C9470110C944803A5
:100220000C94DD180C9423110C948C110C946D110A
:100230000C94CC170C94961911241FBECFEFCDBF90
:10024000DFE3DEBF00E00CBFE9E0F7E38AEA90E419
:100250008193E030F907E0F311E2A0E0B0E2E8E3D7
:10026000FCE300E00BBF02C007900D92A435B1077C
:10027000D9F727E3A4E5B1E201C01D92A930B20786
:10028000E1F70E94FB110C941A1E0C9400000F93CE
:10029000CF93DF931F92CDB7DEB72FB72983F894A2
:1002A0001BBEFC0108ED04BF608389818FBF0F90E6
:1002B000DF91CF910F910895662311F090E201C074
:1002C00090E0892B482B4093520008956F71862B44
:1002D000809355000895E0E5F0E09081282F209567
:1002E00092239083908189230895682B81E490E084
:1002F0000E94470108950F931F93CF93C82F00E4E6
:1003000010E0F8016081687F682B80E490E00E9433
:100310004701F80180818C23CF911F910F9108959F
:10032000FC019081907F692B60830895FC0190818E
:10033000907F692B60830895FC019181987F692BE0
:1003400061830895FC019181987F692B61830895F1
:10035000FC0196819C7F692B66830895000088EDDF
:1003600084BF81E08093790008950E94AE010895D2
:100370008BE20E94B50108950F9301110CC0DC01BE
:10038000CB0182239323A423B523892B8A2B8B2B88
:1003900079F480E010C0DC01CB0182239323A423F5
:1003A000B523281739074A075B0721F080E003C00F
:1003B00081E001C081E00F910895CF93DF9380E148
:1003C00090E00E945803EC01009741F0FC0111926B
:1003D000119211921192CF010E947F03CE01DF9101
:1003E000CF9108952F923F924F925F926F927F929A
:1003F0008F929F92AF92BF92CF92DF92EF92FF9235
:100400000F931F93CF93DF93EC014A015B01622EA0
:10041000702E0E94120B288039804A805B80A501D3
:100420009401C201B1010E94BC018823A1F06620A1
:1004300089F1D501C40180959095A095B095822150
:100440009321A421B52188839983AA83BB83C12CDE
:10045000D12C760122C0C114D104E104F104E9F0E9
:10046000611004C040E050E0BA0104C040E050E038
:1004700060E071E071107460482959296A297B296C
:1004800097018601CE0104960E94210D212C312C6A
:10049000210103C0C12CD12C76010E94FA0BCD287A
:1004A000CE28CF2889F1811102C00E94EA040E945F
:1004B000680E6B017C0191FD24C0F091A200FF93B6
:1004C000F87FF093A200C880D980EA80FB80072DD6
:1004D000A5019401C701B6010E94BC01882371F0F7
:1004E000662061F080949094A094B0948C209D201C
:1004F000AE20BF2088829982AA82BB82FF91F093AE
:10050000A200160127015524C201B101DF91CF914C
:100510001F910F91FF90EF90DF90CF90BF90AF9021
:100520009F908F907F906F905F904F903F902F9013
:1005300008950F931F93F091A200FF93F87FF0931B
:10054000A200FC01008111812281338140955095E8
:100550006095709540235123622373234083518318
:1005600062837383FF91F093A200C901B8011F91C8
:100570000F9108954F925F926F927F92AF92BF92C8
:10058000CF92DF92EF92FF920F931F93CF93DF935F
:10059000EC016A017B018C01095F1F4F0E94120B65
:1005A000EB85FC8588819981AA81BB81C82AD92ADB
:1005B000EA2AFB2AC882D982EA82FB82C12CD12C8A
:1005C00076013DC0A480B58080819181A281B381F4
:1005D000AC01BD017727B2FD0EC0488059806A800A
:1005E0007B804422552266227722452846284728C8
:1005F00089F420E012C0488059806A807B804422C0
:10060000552266227722441555056605770521F0A7
:1006100020E003C021E001C021E0222371F0B0FFFF
:1006200004C0C42AD52AE62AF72A488159816A815A
:100630007B817260CF010E94A90DEA2DFB2DE0178E
:10064000F10709F0BFCFC094D094E094F094888172
:100650009981AA81BB81C822D922EA22FB22C882C1
:10066000D982EA82FB820E94FA0B688179818A81B1
:100670009B81DF91CF911F910F91FF90EF90DF90C1
:10068000CF90BF90AF907F906F905F904F90089504
:100690000E94BA0208950F931F9389019A01AB013A
:1006A000BC0188E493E00E949B111F910F91089573
:1006B000CF93DF93EC010E94120B209154213091D3
:1006C0005521C9018C0F9D1F883843E1940758F4C8
:1006D0002817390758F4E901CA5ADE4D809354218E
:1006E0009093552105C0C0E0D0E002C0C0E0D0E04A
:1006F0000E94FA0BCE01DF91CF9108950895FC017D
:100700000396818392834FEF5FEFBA014383548353
:100710006583768387839087818792871082089587
:10072000FC01128613860895CF93DF939C01FB0191
:10073000DC011196CD91DC911297C483D5838E8113
:100740009F81868397838E819F81DC0114966D93B0
:100750007C9315976E837F8322873387F90180818D
:100760008F5F8083DF91CF9108950F931F93CF9375
:10077000DF93EB01088119812A813B810F3F4FEF05
:1007800014072407340721F4FC01A185B28511C0A8
:10079000DC01139601C0DF011496ED91FC911597D1
:1007A000408151816281738104171507260737073D
:1007B00090F71496ED91FC911597EC83FD83C68319
:1007C000D783AE83BF831496CD93DC9315978A8726
:1007D0009B87FC0120812F5F2083DF91CF911F91A8
:1007E0000F910895CF93DF93FC01A285B385C48157
:1007F000D581868197818E839F83C681D7818481AD
:1008000095818C839D8311968D919C911297E81709
:10081000F90731F48681978111968D939C931297F5
:10082000128613868C9181508C938C91DF91CF919D
:10083000089583EF91E0809326089093270865E060
:1008400080E098E00E94900161E080E098E00E94E2
:10085000A8010895E0EAF0E082819281987F928376
:100860000895CF930E942A04C82F0E942A0BC09398
:10087000A200CF910895CF92DF92EF92FF9231E1E3
:10088000FC013083319722E220833197A3E3A083D8
:100890006B01E12CF12C319760833197D082319735
:1008A000E082319761E36083319760E8608331973C
:1008B00067E860833197108231971082319762E048
:1008C0006083319763E06083319764E060833197A0
:1008D00065E06083319766E06083319767E060830D
:1008E000319768E06083319769E06083319760E118
:1008F000608331973083319732E13083319733E130
:100900003083319734E13083319735E1308331974B
:1009100036E13083319737E13083319738E13083E6
:10092000319739E13083319730E23083319731E2CA
:10093000308331972083319723E220836A013197F6
:1009400040833197D082319726E22083319727E286
:100950002083319728E22083319729E22083319741
:1009600020E320838897FF90EF90DF90CF90089549
:100970000E941904A0914C35B0914D350D900DBEDB
:100980000D900EBEEF91DF91CF91BF91AF919F91EE
:100990008F917F916F915F914F913F912F911F9117
:1009A0000F91FF90EF90DF90CF90BF90AF909F900E
:1009B0008F907F906F905F904F903F902F901F90FF
:1009C0000F90FF91F093A200FF91FFBFFF91089558
:1009D00081E00895FF93FFB7FF93F091A200FF938A
:1009E000F87FF093A2000F921F9211242F923F9252
:1009F0004F925F926F927F928F929F92AF92BF922F
:100A0000CF92DF92EF92FF920F931F932F933F931A
:100A10004F935F936F937F938F939F93AF93BF9306
:100A2000CF93DF93EF93A0914C35B0914D350DB638
:100A30000D920EB60D920E94880CA0914C35B0918B
:100A40004D350D900DBE0D900EBEEF91DF91CF9103
:100A5000BF91AF919F918F917F916F915F914F91D6
:100A60003F912F911F910F91FF90EF90DF90CF90CA
:100A7000BF90AF909F908F907F906F905F904F90BE
:100A80003F902F901F900F90FF91F093A200FF9145
:100A9000FFBFFF910895CF9390911A36892B8093D1
:100AA0001A369091A000913041F09091A0009230C0
:100AB00021F09091A000943059F4882349F00E94CD
:100AC0002A04C82F10921A360E94880CC093A200E4
:100AD000CF910895FF93FFB7FF93F091A200FF938A
:100AE000F87FF093A2000F921F9211242F923F9251
:100AF0004F925F926F927F928F929F92AF92BF922E
:100B0000CF92DF92EF92FF920F931F932F933F9319
:100B10004F935F936F937F938F939F93AF93BF9305
:100B2000CF93DF93EF93A0914C35B0914D350DB637
:100B30000D920EB60D920E94310481E00E944B0589
:100B4000A0914C35B0914D350D900DBE0D900EBE5F
:100B5000EF91DF91CF91BF91AF919F918F917F9155
:100B60006F915F914F913F912F911F910F91FF9046
:100B7000EF90DF90CF90BF90AF909F908F907F903D
:100B80006F905F904F903F902F901F900F90FF912C
:100B9000F093A200FF91FFBFFF911895F091A20082
:100BA000FF93F87FF093A200FC01868D811102C0B3
:100BB00081E001C080E0FF91F093A2000895F091E0
:100BC000A200FF93F87FF093A200FC01268D878D91
:100BD000281302C081E001C080E0FF91F093A200E1
:100BE00008950F931F93CF93DF93EC01042F1E8D75
:100BF00048A14423B9F1011116C050E08C819D81B8
:100C00000E94D51D28A18C819D81820F911D8C830E
:100C10009D832A813B818217930720F188819981E6
:100C20008C839D831FC050E08E819F810E94D51DC3
:100C300088A190E09195819591092E813F81280F9F
:100C4000391F2E833F83488159812417350730F49B
:100C50002A813B81820F931F8E839F83023011F480
:100C6000111111501F5F1E8F80E0DF91CF911F91F6
:100C70000F910895FC0140A14423A9F050E0268182
:100C80003781240F351F268337838281938128176C
:100C9000390720F08081918186839783CB0166811B
:100CA00077810E94D51D08951F93CF93DF93EC01A8
:100CB000F091A200FF93F87FF093A2001AA10BC05D
:100CC0008B89882351F0CE0143960E94670D8111D4
:100CD0000E94560E115011169CF38FEF8AA3FF91BC
:100CE000F093A200F091A200FF93F87FF093A2008E
:100CF00019A10BC08885882351F0CE0108960E9467
:100D0000670D81110E94560E115011169CF38FEF42
:100D100089A3FF91F093A200DF91CF911F910895D5
:100D2000CF93DF93EC01F091A200FF93F87FF09353
:100D3000A200E881F9818F8D90E028A130E0829FA8
:100D4000A001839F500D929F500D11244E0F5F1FE5
:100D50004A835B831E8EEC83FD830197289FA0014D
:100D6000299F500D389F500D1124CF01840F951FDE
:100D70008E839F838FEF89A38AA361110CC088851E
:100D8000882389F0CE0108960E94670D882359F0C8
:100D90000E94EA0408C0CE0108960E947F03CE019B
:100DA00043960E947F03FF91F093A20081E0DF91C0
:100DB000CF910895FF920F931F93CF93DF93F22E5D
:100DC000E801611103C00883198302C04883598375
:100DD0008F8F68A361E0CE010E949006FCA2DF9194
:100DE000CF911F910F91FF900895DF92EF92FF92A4
:100DF0000F931F93CF93DF93E82EF62ED42E662306
:100E000021F0869FC001112402C080E090E0859609
:100E10000E945803EC01009749F08C012D2DAC0184
:100E20004B5D5F4F6F2D8E2D0E94DA06CE01DF9154
:100E3000CF911F910F91FF90EF90DF900895CF9287
:100E4000DF92EF92FF920F931F93CF93DF93CDB773
:100E5000DEB72997CDBFDEBF7C016B012E833F83B8
:100E60004887598710E0F091A200FF93F87FF09334
:100E7000A200F701968D878D981710F00230D1F4FB
:100E8000402FB601C7010E94F105F701938999230C
:100E900049F0C70143960E94670D882331F00E94F4
:100EA000EA0403C081110E94EA04FF91F093A200BA
:100EB00081E058C08E819F81A885B985892B8A2BB6
:100EC0008B2B29F4FF91F093A20080E04BC011110D
:100ED00005C0CE0101960E94DD0D11E0FF91F09357
:100EE000A2000E94120BF091A200FF93F87FF093F2
:100EF000A200F70181A18F3F09F411A2F70182A19D
:100F00008F3F09F412A2FF91F093A200BE016A5F25
:100F10007F4FCE0101960E94EE0D81111DC0C701C9
:100F20000E94DF05882391F04E815F816885798575
:100F3000C70108960E94090DC7010E9454060E942D
:100F4000FA0B811190CF0E94EA048DCFC7010E9455
:100F500054060E94FA0B87CFC7010E9454060E94D4
:100F6000FA0B80E02996CDBFDEBFDF91CF911F91B4
:100F70000F91FF90EF90DF90CF900895AF92BF92C6
:100F8000CF92DF92FF920F931F93CF93DF93EC01E9
:100F90006B015A01022F0E942A04F82E9E8D8F8D1C
:100FA000981710F00230E1F41AA1402FB601CE01DB
:100FB0000E94F1051F3F81F48B89882399F0CE01AF
:100FC00043960E94670D882379F0A114B10471F053
:100FD00081E0F50180830BC01F5F1AA381E007C089
:100FE00080E005C081E003C081E001C081E0F092B3
:100FF000A200DF91CF911F910F91FF90DF90CF90D2
:10100000BF90AF900895CF92DF92EF92FF920F932F
:101010001F93CF93DF93CDB7DEB72997CDBFDEBF48
:101020008C016B012E833F8348875987E12CF09117
:10103000A200FF93F87FF093A200F801F68CFF2046
:10104000B1F0B601C8010E943A06FA94F801F68E92
:101050008085882339F0C80108960E94670D8111A8
:101060000E94EA04FF91F093A20081E05FC08E81AC
:101070009F81A885B985892B8A2B8B2B29F4FF9119
:10108000F093A20080E052C0E11006C0CE010196AC
:101090000E94DD0DEE24E394FF91F093A2000E94E4
:1010A000120BF091A200FF93F87FF093A200F801D9
:1010B00081A18F3F09F411A2F80182A18F3F09F4A9
:1010C00012A2FF91F093A200BE016A5F7F4FCE0192
:1010D00001960E94EE0D81111DC0C8010E94CE052F
:1010E000882391F04E815F8168857985C801439698
:1010F0000E94090DC8010E9454060E94FA0B81113A
:1011000096CF0E94EA0493CFC8010E9454060E9421
:10111000FA0B8DCFC8010E9454060E94FA0BC80139
:101120000E94CE05882309F482CF80E02996CDBFA6
:10113000DEBFDF91CF911F910F91FF90EF90DF9075
:10114000CF900895F091A200FF93F87FF093A20052
:10115000FC01868DFF91F093A2000895CF93DF9359
:10116000EC01F091A200FF93F87FF093A20089A117
:101170008F3F09F419A28AA18F3F09F41AA2FF91A7
:10118000F093A2008E8D811104C0CE0143960E947F
:10119000460DCE010E945406DF91CF910895E09153
:1011A0000835F0910935808181110CC08FEF9FEFD8
:1011B000DC018093E1349093E234A093E334B09364
:1011C000E4340895E0910835F09109350780F08501
:1011D000E02D0084F185E02D82819381A481B58189
:1011E0008093E1349093E234A093E334B093E434F9
:1011F00008952F923F924F925F926F927F928F92BB
:101200009F92AF92BF92CF92DF92EF920F931F9374
:10121000CF93DF93CDB7DEB71C014B0129013A0113
:10122000A90165EA70E0F501838D948D0E94DE1DB1
:10123000F501838D948DF1E04F1A5108480E591E27
:1012400020E00FC0822F90E0F401E80FF91F3081F9
:10125000D501A80FB91F5D963C938081882319F0B2
:101260002F5F283078F3F50114A2F3E0FE1520F487
:101270000F2EF3E0EF2EF02DF501E28EC501029660
:101280000E949003C5010E960E949003F501A2866C
:10129000B38684E090E0A0E0B0E08E199109A10946
:1012A000B10986879787A08BB18BA68AB78A17A2C8
:1012B00010A611A612A613A6A801B101C2010E9490
:1012C0003B04F50180839183C114D10419F0F60128
:1012D000A082B182DF91CF911F910F91EF90DF90AB
:1012E000CF90BF90AF909F908F907F906F905F90C6
:1012F0004F903F902F900895CF93C0E009C02BE00E
:10130000C29FC0011124805E9A4C0E947F03CF5F70
:10131000C430A8F385E195E30E947F038AE095E35A
:101320000E947F038BEF94E30E947F0380EF94E39E
:101330000E947F0385E195E38093083590930935FA
:101340008AE095E38093063590930735CF91089511
:10135000CF93DF93EC01F091A200FF93F87FF0931D
:10136000A2008091EF348F5F8093EF3480914C35F1
:1013700090914D35892B59F4C0934C35D0934D3510
:101380008091EF34813099F40E947C0910C08091E3
:10139000E93481110CC0E0914C35F0914D35928DBE
:1013A0008A8D891720F0C0934C35D0934D358091AC
:1013B000E5348F5F8093E5348DA38A8D9091EA3474
:1013C000981710F48093EA342BE0829FC001112417
:1013D000BE016E5F7F4F805E9A4C0E949403FF9126
:1013E000F093A2008091E934882351F0E0914C35CC
:1013F000F0914D35928D8A8D981710F40E94EA0471
:10140000DF91CF9108958F929F92AF92BF92CF922A
:10141000DF92EF92FF92CF936B017C01C42F8090FB
:10142000EB349090EC34A090ED34B090EE34809199
:101430004C3590914D3502960E94F2038FEFC816FD
:10144000D806E806F80669F4CC2359F060914C35CB
:1014500070914D356E5F7F4F80EF94E30E9494034F
:101460003FC0C80CD91CEA1CFB1CE0914C35F09124
:101470004D35C282D382E482F582C814D904EA04CD
:10148000FB0468F460914C3570914D3580910635C0
:10149000909107356E5F7F4F0E94B50321C0609128
:1014A0004C3570914D3580910835909109356E5FBE
:1014B0007F4F0E94B5038091E1349091E234A09176
:1014C000E334B091E434C816D906EA06FB0640F4CA
:1014D000C092E134D092E234E092E334F092E4340A
:1014E000CF91FF90EF90DF90CF90BF90AF909F9003
:1014F0008F90089580912035823010F00E94EA0488
:101500000E94FA11F7CF2F923F924F925F926F9203
:101510007F928F929F92AF92BF92CF92DF92EF9283
:10152000FF920F931F93CF93DF933C011B015A014E
:101530002901CA010E9458036C01892B71F08CE2C9
:1015400090E00E945803EC01892B19F0CB8EDC8EC1
:1015500006C0C6010E947E0302C0C0E0D0E0209712
:1015600091F0950140E050E0812C912C5E016701E3
:10157000E02E8201B101C3010E94F908CE010E9450
:10158000A80981E001C08FEFDF91CF911F910F91EA
:10159000FF90EF90DF90CF90BF90AF909F908F9093
:1015A0007F906F905F904F903F902F900895EF92B3
:1015B000FF920F930F2EFFEDEF2EF4E3FF2EF02D91
:1015C00000E020E030E048EC50E060E070E28AE7C4
:1015D0009AE00E94830A813011F40E941E0F81302C
:1015E000E9F4E0EAF0E08281887F82838FEF9FEF69
:1015F000DC018093E1349093E234A093E334B09320
:10160000E43481E08093E9341092EB341092EC34AE
:101610001092ED341092EE340E94B8040F91FF90B6
:10162000EF9008958091DE348F5F8093DE340895CB
:10163000F091A200FF93F87FF093A2006091EB3449
:101640007091EC348091ED349091EE34FF91F093F1
:10165000A2000895BF92CF92DF92EF92FF920F9374
:101660001F93CF93DF938091DE348111A9C0C09086
:10167000EB34D090EC34E090ED34F090EE342FEF7A
:10168000C21AD20AE20AF20AC092EB34D092EC34C7
:10169000E092ED34F092EE34C114D104E104F1048F
:1016A000B9F4809108359091093520910635309133
:1016B000073520930835309309358093063590938C
:1016C00007358091E6348F5F8093E6340E94CF081F
:1016D0008091E1349091E234A091E334B091E4340C
:1016E000C816D906EA06FB0628F4B12C5AC0BB245A
:1016F000B39401C0B12CE0910835F0910935808197
:1017000081110CC08FEF9FEFDC018093E134909347
:10171000E234A093E334B093E43443C0E09108355D
:10172000F09109350780F085E02DC085D1858A814B
:101730009B81AC81BD81C816D906EA06FB0648F438
:101740008093E1349093E234A093E334B093E43493
:1017500028C08E010E5F1F4FC8010E94F203888DC2
:10176000998D892B21F0CE010E960E94F2038A8D6D
:101770009091EA34981710F48093EA342BE0829F1A
:10178000C0011124B801805E9A4C0E9494039A8D86
:10179000E0914C35F0914D35828D981708F0A7CF28
:1017A000AACFE0914C35F0914D35E28D8BE0E89F6A
:1017B000F0011124E05EFA4C8081823040F409C0CF
:1017C0008091E8348F5F8093E834B12C02C0BB2451
:1017D000B3948091E734882311F0BB24B3948B2D0C
:1017E000DF91CF911F910F91FF90EF90DF90CF90FD
:1017F000BF9008950F931F93CF93DF93F091A200B2
:10180000FF93F87FF093A2008091DE3481508093A3
:10181000DE348091DE34811152C08091EF34811129
:101820002DC050C0E0910235F0910335C085D185BF
:10183000CE010E960E94F2038E010E5F1F4FC8016B
:101840000E94F2038A8D9091EA34981710F48093E5
:10185000EA342BE0829FC0011124B801805E9A4CCB
:101860000E9494039A8DE0914C35F0914D35828D14
:10187000981730F081E08093E73402C0C0E0D0E0F8
:101880008091FB348111CECFCD2B11F00E94CF0877
:10189000C091E834CC2359F00E942A0B882319F018
:1018A00081E08093E734C150B9F71092E834809119
:1018B000E734882331F00E94EA0481E003C080E02D
:1018C00001C080E0FF91F093A200DF91CF911F91C2
:1018D0000F910895CF92DF92EF92FF926B017C01FE
:1018E000672B682B692B51F00E94120B40E0C70157
:1018F000B6010E94030A0E94FA0B01C080E0811128
:1019000002C00E94EA04FF90EF90DF90CF9008950C
:101910008091DE34882321F081E08093E7340895BC
:101920001092E734E0914C35F0914D35038CF48DF5
:10193000E02D80819181A281B381853A954AA54AA3
:10194000B54AD9F484819581A681B781853A954AB3
:10195000A54AB54A91F480859185A285B385853ADB
:10196000954AA54AB54A49F484859585A685B785E3
:10197000853A954AA54AB54A61F060914C35709117
:101980004D35635E7F4F80914C3590914D350E946F
:10199000B8018091EA3401C08150282F30E09BE0EB
:1019A000929FF001939FF00D1124E05EFA4C90811C
:1019B000992391F39BE0929FA001939F500D1124D6
:1019C000DF010180F281E02D0480F581E02D119688
:1019D000ED93FC9312974D5D5A4CE417F50729F4EB
:1019E00044815581FD01418352839BE0929FF00128
:1019F000939FF00D1124E05EFA4C0180F281E02DFE
:101A00002085318520934C3530934D358093EA34D1
:101A10000895CF92DF92EF92FF926A017B0160916D
:101A20004C3570914D35625F7F4F0E94B50341E0A8
:101A3000C701B6010E94030AFF90EF90DF90CF909C
:101A40000895CF92DF92EF92FF920F931F93680158
:101A50007901E0914C35F0914D3570684687578794
:101A6000608B718B60914C3570914D35625F7F4F0B
:101A70000E94940341E0C701B6010E94030A1F912E
:101A80000F91FF90EF90DF90CF900895CF92DF926B
:101A9000EF92FF92CF936A017B01C22F60914C3588
:101AA00070914D35625F7F4F0E949403CC2321F0EB
:101AB000CC24CA94DC2C76014C2FC701B6010E94BD
:101AC000030ACF91FF90EF90DF90CF9008950F938E
:101AD0001F93CF93DF93DC011796ED91FC9118973C
:101AE000C085D1858E01025F1F4FC8010E94F2039D
:101AF0008091DE34811116C00C501109C8010E947A
:101B0000F2038A8D9091EA34981710F48093EA34A6
:101B1000BBE08B9FC0011124B801805E9A4C0E94EB
:101B2000940305C0B8018BEF94E30E9494039A8D4F
:101B3000E0914C35F0914D35828D891720F481E08C
:101B40008093E73401C080E0DF91CF911F910F9126
:101B500008950F931F93CF93DF937068FC01408328
:101B6000518362837383C085D1850E94F2038E0105
:101B70000E5F1F4FC8010E94F2038A8D9091EA34D4
:101B8000981710F48093EA34FBE08F9FC001112472
:101B9000B801805E9A4C0E9494039A8DE0914C3576
:101BA000F0914D35828D891718F481E08093E734E8
:101BB000DF91CF911F910F9108952091E634FC01A0
:101BC00020834091EB345091EC346091ED3470916E
:101BD000EE34418352836383748308958F929F927E
:101BE000AF92BF92CF92DF92EF92FF920F931F932B
:101BF000CF93DF93DB01F091A200FF93F87FF09386
:101C0000A200C090EB34D090EC34E090ED34F09032
:101C1000EE34EC0109811A812B813C814601570188
:101C2000801A910AA20AB30A4D915D916D917C913F
:101C300013974F3FDFEF5D076D077D0721F1EC0143
:101C4000F881E091E634FE1729F0C016D106E206CD
:101C5000F306D8F484169506A606B70668F4481964
:101C600059096A097B094D935D936D937C93139792
:101C70000E94DD0D80E00AC01D921D921D921C92F3
:101C8000139781E003C080E001C081E0FF91F093F1
:101C9000A200DF91CF911F910F91FF90EF90DF9005
:101CA000CF90BF90AF909F908F90089581E08093E8
:101CB000E73408958091E934882331F08091DE344F
:101CC000811104C082E0089581E0089580E00895C4
:101CD000CF92DF92EF92FF92E0914C35F0914D352B
:101CE0006685778580899189E0914C35F0914D35F5
:101CF000A0914C35B0914D355A962C91C12CD12CD8
:101D000076016894C2F8C21AD108E108F108C686C3
:101D1000D786E08AF18AFF90EF90DF90CF90089508
:101D2000DC01E0915835F0915935808191E08111C5
:101D300090E09C93911108C00780F085E02D6081B0
:101D4000718182819381089560E070E0CB010895F4
:101D5000CF92DF92EF92FF920F931F93FC01428389
:101D60005383648375838287938704171507260737
:101D70003707C0F00C191D092E093F098685978584
:101D8000A089B189081719072A073B0700F5BF0189
:101D90006E5F7F4F80915635909157350E94B50305
:101DA00080E018C00C151D052E053F0528F44C15C4
:101DB0005D056E057F0568F4BF016E5F7F4F809102
:101DC0005835909159350E94B50380E003C081E0F9
:101DD00001C081E01F910F91FF90EF90DF90CF90B5
:101DE0000895F091A200FF93F87FF093A2008091F4
:101DF000543590915535892BE9F485E695E30E9499
:101E00007F038AE595E30E947F0385E695E380934F
:101E10005835909359358AE595E3809356359093DC
:101E2000573540E069E085E00E94F506809354351F
:101E300090935535FF91F093A2000895EF92FF9291
:101E40000F930E94F10E8091543590915535892B56
:101E500091F00F2EF2E5EF2EF5E3FF2EF02D03E0CB
:101E600020E030E048EC50E065E070E28CE891E181
:101E70000E94830A01C080E00F91FF90EF900895C7
:101E80008F929F92AF92BF92CF92DF92EF92FF928A
:101E90000F931F93CF93DF93CDB7DEB72997CDBFB5
:101EA000DEBFE0915435F0915535309789F1698363
:101EB0002A833B834C835D838E839F836630FCF44F
:101EC0000E945A0E823069F400E0A7019601BE011B
:101ED0006F5F7F4F80915435909155350E941F0759
:101EE00018C000E020E030E0A901BE016F5F7F4F25
:101EF00080915435909155350E941F070AC020E00B
:101F0000A801BE016F5F7F4FCF010E94BE0701C0D5
:101F100080E02996CDBFDEBFDF91CF911F910F9159
:101F2000FF90EF90DF90CF90BF90AF909F908F90F9
:101F300008958F929F92AF92BF92CF92DF92EF92CD
:101F4000FF920F931F93CF93DF933CC00780F085E0
:101F5000E02D80809180A280B380C085D1858E01E4
:101F60000E5F1F4FC8010E94F203ED89FE89CE016A
:101F700019958A89813031F58E859F85A889B9891F
:101F8000880D991DAA1DBB1D88169906AA06BB06B9
:101F900070F48A839B83AC83BD83CA87DB87B801D7
:101FA00080915835909159350E94B5030BC0C12CD2
:101FB000D12C760100E010E0A501940160E0CE0193
:101FC0000E94400FE0915835F09159358081811180
:101FD000BDCF809156359091573580935835909369
:101FE0005935E0935635F0935735DF91CF911F91D6
:101FF0000F91FF90EF90DF90CF90BF90AF909F90A8
:102000008F900895CF92DF92EF92FF92CF93DF935C
:10201000EC010E94180B6B017C0180914E35909170
:102020004F35A0915035B0915135C816D906EA0602
:10203000FB0628F40E94990F81E0888301C0188272
:10204000C0924E35D0924F35E0925035F0925135D6
:10205000C701B601DF91CF91FF90EF90DF90CF9055
:1020600008954F925F926F927F928F929F92AF925C
:10207000BF92CF92DF92EF92FF920F931F93CF9375
:10208000DF934B015C0129013A01E0915835F09151
:1020900059350780F085E02DC085D185CE010296A7
:1020A0000E94F2038A898130E1F44E855F85688958
:1020B0007989480D591D6A1D7B1D750164019301C5
:1020C0008201CE010E94A80E882359F0C12CD12C88
:1020D000760100E010E0A501940160E0CE010E94CD
:1020E000400FED89FE89CE011995DF91CF911F91A7
:1020F0000F91FF90EF90DF90CF90BF90AF909F90A7
:102100008F907F906F905F904F9008958F929F92E5
:10211000AF92BF92CF92DF92EF92FF921F93CF9335
:10212000DF931F92CDB7DEB76B017C01142F0E94A5
:10213000120BCE0101960E9402104B015C018981B5
:1021400081112EC011110EC08C149D04AE04BF0469
:1021500048F00E94FA0BA5019401C701B6010E9444
:10216000311020C0112341F0E0915635F0915735E0
:10217000808111E0811110E0B701A60148195909C9
:102180006A097B09212F80915435909155350E9421
:10219000AE080E94FA0B811105C00E94EA0402C039
:1021A0000E94FA0B0F90DF91CF911F91FF90EF905B
:1021B000DF90CF90BF90AF909F908F900895AF9297
:1021C000BF92CF92DF92EF92FF920F931F93CF9324
:1021D000DF93CDB7DEB72A97CDBFDEBF81C089813F
:1021E00088234CF4EA81FB814E815F816885798583
:1021F0008C819D811995898188230CF471C0AE80F2
:10220000BF80D5011C968D919C911D97892B21F043
:10221000C50102960E94F203CE010A960E940210A6
:102220008B019C018981082E000C990BAA0BBB0B1A
:102230008A30910508F054C0FC018827E250FF4F16
:102240008F4F0C94CD1DCA80DB80EC80FD80F501A2
:1022500046855785608971894C0D5D1D6E1D7F1DFA
:10226000C5010E94A80E8823D9F1D5015596ED919C
:10227000FC915697C5011995F5018289813081F548
:102280004A815B816C817D8186859785A089B18932
:102290009A01AB01280F391F4A1F5B1FC12CD12C9B
:1022A000760100E010E060E0C5010E94400F18C018
:1022B0004A815B816C817D81D5011E964D935D9332
:1022C0006D937C935197400F511F621F731F6801DC
:1022D0007901C5010E94A80E03C0C5010E947E03BA
:1022E00020E030E0A901BE016F5F7F4F809154353F
:1022F000909155350E940308811171CF2A96CDBF68
:10230000DEBFDF91CF911F910F91FF90EF90DF9093
:10231000CF90BF90AF900895CF93DF931F92CDB72A
:10232000DEB7CE0101960E94900E49810E94861070
:102330000E94DF10F6CF0F931F93CF93DF93CDB79B
:10234000DEB72997CDBFDEBFEEEFE9838A839B839B
:102350006C837D832E833F834887598720E0A801C3
:10236000BE016F5F7F4F80915435909155350E942B
:10237000BE072996CDBFDEBFDF91CF911F910F9190
:102380000895E0E5F0E080818160808380915100D4
:1023900080FFFCCF80E00E947B018EE10E946B01F8
:1023A00060E080E00E94750143E060E080E40E940C
:1023B0005C01E0E5F0E080818860808380915100DD
:1023C00083FFFCCF64E080EC0E946601E0E5F0E072
:1023D00080818061808360E080E00E94750180914F
:1023E000510084FFFCCF84E00E947B0187E00E94C3
:1023F0006B0108950895EF92FF920F93CF930E947F
:10240000691BC82F0E94C1110E9434170E94901AA4
:102410000E949E1A0E94DF1A0E94801A0E94B21A1D
:102420000E941C1BE12CF12C02E020E030E04CEB80
:1024300052E060E070E086E999E10E94830A01E0E1
:1024400020E030E04CE251E060E070E08DED98E19A
:102450000E94830A0E94C0188DE090E29F938F93A0
:102460001F921F921F921F920E94CB188DE190E243
:102470009F938F931F921F921F9281E08F930E94D0
:10248000CB188AE290E29F938F931F921F921F9224
:1024900082E08F930E94CB181F92CF9389E390E242
:1024A0009F938F931F921F921F9283E08F930E949E
:1024B000CB180E94D70A8DB79EB74A968DBF9EBF94
:1024C00080E090E0CF910F91FF90EF900895CF9230
:1024D000DF92EF92FF920F931F93CF93DF938C01C4
:1024E000FC01C080D180E280F380C0E0D0E00BC06E
:1024F00020E030E040E251E4C701B6010E94011C37
:102500006B017C01219620E030E040E85FE3C701E9
:10251000B6010E945B1D88235CF70BC020E030E011
:1025200040E251E4C701B6010E94601D6B017C01CD
:1025300021972DEC3CEC4CEC5DE3C701B6010E9409
:10254000FC1B88235CF3F801C082D182E282F38213
:10255000CE01DF91CF911F910F91FF90EF90DF900F
:10256000CF9008954F925F926F927F928F929F9239
:10257000AF92BF92CF92DF92EF92FF920F931F9391
:10258000CF93DF9300D01F92CDB7DEB75C01E42E6E
:10259000F52E062F172F49835A836B837C8320E007
:1025A00030E0A9016E2D7F2D802F912F0E94FC1B02
:1025B000811105C080E3F50180831182B9C020E05C
:1025C00030E0A9016E2D7F2D802F912F0E94FC1BE2
:1025D00088237CF48DE2F501808389819A81AB8127
:1025E000BC81B05889839A83AB83BC83C5010196B3
:1025F0005C01CE0101960E9467127C0100E010E0B0
:1026000038C020E030E040E251E469817A818B817A
:102610009C810E94601D0E94731C2B013C0165017E
:102620009FEFC91AD90A80E3840DF501808320E069
:1026300030E040E251E469817A818B819C810E9483
:10264000601D4B015C01B201550C880B990B0E9477
:10265000AB1C9B01AC01C501B4010E948F1B6983B7
:102660007A838B839C830F5F1F4FF1E0EF1AF10891
:1026700056011E141F042CF20115110531F480E3DC
:10268000F5018083C50101965C0165019FEFC91AC0
:10269000D90A8EE2F50180830BC080E3F6018083C6
:1026A000F1E0EF1AF1080F5F1F4FC60101966C01B0
:1026B000FF20CCF50430110584F335C020E030E074
:1026C00040E251E469817A818B819C810E94601D86
:1026D0000E94731C4B015C0176019FEFE91AF90A15
:1026E00080E3880DF601808320E030E040E251E491
:1026F00069817A818B819C810E94601D2B013C0144
:10270000B401990C880B990B0E94AB1C9B01AC0186
:10271000C301B2010E948F1B69837A838B839C83E0
:102720000F5F1F4F67010430110544F2F60110825C
:102730002496CDBFDEBFDF91CF911F910F91FF9007
:10274000EF90DF90CF90BF90AF909F908F907F9051
:102750006F905F904F9008952F923F924F925F92AB
:102760006F927F928F929F92AF92BF92CF92DF92A1
:10277000EF92FF920F931F93CF93DF93CDB7DEB706
:102780002897CDBFDEBF7C01C42ED52E062F172F74
:1027900049835A836B837C8320E030E0A9016C2D50
:1027A0007D2D802F912F0E94FC1B811105C080E39D
:1027B000F70180831182A2C020E030E0A9016C2DD6
:1027C0007D2D802F912F0E94FC1B88237CF48DE2AD
:1027D000F701808389819A81AB81BC81B05889835C
:1027E0009A83AB83BC83C70101967C01CE0101961D
:1027F0000E9467125C0120E030E040E251E4698110
:102800007A818B819C810E94601D0E94731C2B0128
:102810003C0180E3840DF701808320E030E040E25A
:1028200051E469817A818B819C810E94601D6D8356
:102830007E838F839887B201550C880B990B0E9479
:10284000AB1C9B01AC016D817E818F8198850E94BC
:102850008F1B69837A838B839C831501F1E02F1A88
:10286000310887010E5F1F4F8EE2F7018183E12C53
:10287000F12C36C020E030E040E251E469817A81F9
:102880008B819C810E94601D0E94731C2B013C0166
:102890006801FFEFCF1ADF0A80E3840DF80180831F
:1028A00020E030E040E251E469817A818B819C81B3
:1028B0000E94601D4B015C01B201550C880B990B05
:1028C0000E94AB1C9B01AC01C501B4010E948F1B8F
:1028D00069837A838B839C83FFEFEF1AFF0A86015B
:1028E00084E0E816F10434F2B8016F5F7F4F85E6AB
:1028F000F80180834AE0C1010E94E51D2896CDBF02
:10290000DEBFDF91CF911F910F91FF90EF90DF908D
:10291000CF90BF90AF909F908F907F906F905F907F
:102920004F903F902F9008956F927F928F929F9239
:10293000BF92CF92DF92EF92FF920F931F93CF93AC
:10294000DF93CDB7DEB76697CDBFDEBFB82E8B0164
:10295000DA01390180E090E005C0FC01EC57FA4C47
:102960001082019684319105C4F380E090E005C0A7
:10297000FC01E059FA4C1082019684319105C4F3B0
:10298000E12CF12C14C1853209F001C16D0182E006
:10299000C80ED11C11968C91853609F4CDC038F43F
:1029A0008336C1F008F049C0853251F0FFC083374B
:1029B000F9F0883709F46BC0863609F0F7C091C08A
:1029C000D701A059BA4C85E28C939FEFE91AF90A16
:1029D000D601EDC0F3018081D701A059BA4C8C9388
:1029E000FFEFEF1AFF0AC30102963C01D601DFC0D8
:1029F00093012E5F3F4FF301A081B18180E090E011
:102A00000DC0B701680F791FAD01480F591FFA01BA
:102A10004081FB01E059FA4C40830196FD01019091
:102A20000020E9F73197EA1BFB0B8E179F0748F34D
:102A3000EE0EFF1E3901D601BAC04301F2E08F0E3F
:102A4000911C4AE064E875E3F301808191810E9462
:102A5000E51D80E090E00BC0F701E80FF91FDC01F5
:102A6000AC57BA4C2C91E059FA4C20830196E4E81B
:102A7000F5E301900020E9F73197E458F5438E170C
:102A80009F0750F3EE0EFF1E3401D60190C04301A4
:102A9000F2E08F0E911C40E164E875E3F301808160
:102AA00091810E94E51D80E090E00BC0F701E80FE6
:102AB000F91FDC01AC57BA4C2C91E059FA4C208339
:102AC0000196E4E8F5E301900020E9F73197E45836
:102AD000F5438E179F0750F3EE0EFF1E3401D6010B
:102AE00066C04301F4E08F0E911CF30140815181D7
:102AF0006281738184E895E30E94B21280E090E0E5
:102B00000BC0F701E80FF91FDC01AC57BA4C2C9150
:102B1000E059FA4C20830196E4E8F5E301900020A7
:102B2000E9F73197E458F5438E179F0750F3EE0EFF
:102B3000FF1E3401D6013BC04301F4E08F0E911C0F
:102B4000F301408151816281738184E895E30E94A1
:102B5000AC1380E090E00BC0F701E80FF91FDC0137
:102B6000AC57BA4C2C91E059FA4C20830196E4E81A
:102B7000F5E301900020E9F73197E458F5438E170B
:102B80009F0750F3EE0EFF1E3401D60110C0D7018F
:102B9000A059BA4C8C938A3021F4D701A059BA4C71
:102BA0001C92FFEFEF1AFF0AD90101C0D6019D0167
:102BB0002F5F3F4F8C918111E6CEC701800F911F8F
:102BC00044972CF084E190E07C01E01AF10A80E067
:102BD00090E008C0E3E0F0E0EC0FFD1FE80FF91F04
:102BE0001082019684319105ACF3B9820A8380E0AA
:102BF00090E00CC0FC01E059FA4C2081E3E0F0E0E9
:102C0000EC0FFD1FE80FF91F208301968E159F051D
:102C10008CF300E02FEF3FEFA901BE016F5F7F4F04
:102C200080911F36909120360E941F07C70166963B
:102C3000CDBFDEBFDF91CF911F910F91FF90EF903D
:102C4000DF90CF90BF909F908F907F906F9008956E
:102C50001F920F920FB60F9211240BB60F922F9363
:102C60003F934F935F936F937F938F939F93AF9314
:102C7000BF93EF93FF93CF93DF931F92CDB7DEB750
:102C800019829E012F5F3F4F41E050E060E070E00D
:102C900080912136909122360E944B0360E080E0C3
:102CA0009BE00E9490011092060B0F90DF91CF9154
:102CB000FF91EF91BF91AF919F918F917F916F9114
:102CC0005F914F913F912F910F900BBE0F900FBED0
:102CD0000F901F901895CF92DF92EF92FF920F9373
:102CE0006B017C0182E0C816D104E104F10428F4F0
:102CF000C12CD12C76016894C1F8E0E0FBE081E0C2
:102D0000868310A211A260E080E09BE00E949C01FB
:102D10008EEFC8168FEFD806E104F10470F4F69434
:102D2000E794D794C794C092260BD092270B65E006
:102D300080E09BE00E94900119C080E4C81682E404
:102D4000D8068FE0E806F10488F4689414F8F69445
:102D5000E794D794C7941694D1F7C092260BD092DB
:102D6000270B67E080E09BE00E9490010F2EF4EFBC
:102D7000CF2EDD24D394E12CF12CF02D00E021E0C6
:102D800041E050E060E070E0809121369091223681
:102D90000E94F2010F91FF90EF90DF90CF90089585
:102DA0008295807FE0E0F6E09481282F2F609223C7
:102DB00094839481892B84830895882321F081E072
:102DC00080936506089581E08093660608958823C0
:102DD00021F082E080936506089582E08093660684
:102DE0000895882321F084E080936506089584E0A7
:102DF00080936606089581E00E94F11661E070E01C
:102E000080E090E00E946B1680E00E94F116089529
:102E1000CF93C82F82958F700E94D01680E00E94B9
:102E2000DD1680E00E94E7160E94FB168C2F8F7043
:102E30000E94D0160E94FB16CF910895CF93C82F01
:102E400082958F700E94D01681E00E94DD1680E08E
:102E50000E94E7160E94FB168C2F8F700E94D016DE
:102E60000E94FB16CF910895EF92FF920F93E0E03E
:102E7000F6E080E1818380E2818380E4818380E8E1
:102E80008183A0E6B6E081E011968C93119782E0F1
:102E900011968C93119784E011968C9311978481ED
:102EA0008F70848314968C911497887F14968C93DA
:102EB00040E066E188E00E94F50680931F3690931B
:102EC00020360E94DD018093213690932236E12C3A
:102ED000F12C01E020E030E04EE551E069E470E2E1
:102EE0008CEC97E10E94830A0F91FF90EF90089578
:102EF0008130910579F01CF4892B39F019C08230AA
:102F0000910569F0039781F013C080E8860F0E9455
:102F100008170EC080EC860F0E94081709C084E9CC
:102F2000860F0E94081704C084ED860F0E940817C0
:102F300067E270E080E090E00E946B1608950E94C6
:102F40001E176BE270E080E090E00E946B1608951F
:102F50000F931F93CF93DF938C01C0E0D0E009C0A3
:102F6000F801EC0FFD1F8081882331F00E949F172C
:102F70002196C431D105A4F3DF91CF911F910F9118
:102F80000895CF93DF93EA010E947817CE010E9443
:102F9000A817DF91CF910895CF93DF93CDB7DEB718
:102FA000C656D109CDBFDEBF80E090E019C044E134
:102FB000489FF001499FF00D112441E050E04C0F73
:102FC0005D1FE40FF51FE20FF31F40E240832F5F08
:102FD0003F4F02C020E030E02431310544F3019638
:102FE00084309105BCF360E47CE980E090E00E94CD
:102FF0006B1683E00E94D01668E873E180E090E0F1
:103000000E946B160E94FB1660EA70E080E090E080
:103010000E946B160E94FB1660EA70E080E090E070
:103020000E946B160E94FB1660EA70E080E090E060
:103030000E946B1682E00E94D0160E94FB1688E266
:103040000E94081780E10E9408178CE00E94081770
:1030500086E00E94081768EC70E080E090E00E9433
:103060006A0C40E050E0BA018091213690912236FE
:103070000E949902672B682B692B09F45FC042E01C
:1030800050E060E070E080912136909122360E94FD
:10309000990240E050E019C024E1249FF001259FEF
:1030A000F00D112421E030E02C0F3D1FE20FF31F43
:1030B000E80FF91F20E22083019602C080E090E033
:1030C000843191054CF34F5F5F4F44305105B4F3A9
:1030D00035C02FEF3FEFA901BE016F5A7F4F80919E
:1030E0001F36909120360E940308882339F112C0C0
:1030F00062964FAD6297E1E0F0E0EC0FFD1F74E1E6
:10310000479FE00DF11D1124E80FF91F60832F5F29
:103110003F4F02C020E030E063968FAD6397F90126
:10312000E80FF11DCF0174974CF4E1E5F0E0EC0FEE
:10313000FD1FE20FF31F62816111DACF80911F360C
:10314000909120360E94A2088111C3CF00E010E0C8
:1031500013C084E1809FA001819F500D112421E0C4
:1031600030E02C0F3D1F420F531F60E070E0C8019C
:103170000E94C1170F5F1F4F0430110554F36BCF2E
:1031800042E050E060E070E080912136909122367C
:103190000E94BA020895CF93DF93CDB7DEB79E01A8
:1031A000245F3F4F4A855B85688579858E819F8145
:1031B0000E949414DF91CF910895CF93DF93CDB700
:1031C000DEB7C054D109CDBFDEBF40E060E484E08B
:1031D0000E94F506809323369093243606C063E060
:1031E00070E080E090E00E946A0C80911D36909122
:1031F0001E360097A1F3CC24CA94DC2C760101E0A2
:1032000020E041E050E060E070E00E94F2010CC07C
:103210002FEF3FEFA901BE016F5F7F4F80912336F3
:10322000909124360E940308809123369091243691
:103230000E94A2088111ECCF62E070E080E090E093
:103240000E946A0CF1CFCF93DF931F92CDB7DEB708
:10325000198220E0AE014F5F5F4FBC0180912336A1
:10326000909124360E94BE070F90DF91CF91089570
:103270001F920F920FB60F9211240BB60F922F933D
:103280003F934F935F936F937F938F939F93AF93EE
:10329000BF93EF93FF93E0E0F1E081A9806181AB00
:1032A00089E896E30E942319FF91EF91BF91AF91B6
:1032B0009F918F917F916F915F914F913F912F914E
:1032C0000F900BBE0F900FBE0F901F9018951F927E
:1032D0000F920FB60F9211240BB60F922F933F93BC
:1032E0004F935F936F937F938F939F93AF93BF930E
:1032F000EF93FF93E1E4F1E080818061808389ECCA
:1033000096E30E942319FF91EF91BF91AF919F9196
:103310008F917F916F915F914F913F912F910F907E
:103320000BBE0F900FBE0F901F90189506C063E064
:1033300070E080E090E00E946A0C80911D369091D0
:103340001E360097A1F3CC24CA94DC2C760101E050
:1033500020E041E050E060E070E00E94F2016AE0AD
:1033600070E080E090E00E946A0CF9CF40E050E00D
:1033700052C0E0919835F0919935EB5DF94C608140
:103380006130B1F028F0623021F1633091F141C039
:10339000220F331FFC01E20FF31FDA01AA0FBB1F3C
:1033A000AC52BF4D2D913C91385F2083318331C0A9
:1033B000220F331FFC01E20FF31FDA015096AA0F10
:1033C000BB1FAC52BF4D2D913C91385F20833183A0
:1033D00020C0220F331FFC01E20FF31FDA01AA0FF6
:1033E000BB1FAC5ABF4D2D913C91385F2083318378
:1033F00010C0220F331FFC01E20FF31FDA015096B9
:10340000AA0FBB1FAC5ABF4D2D913C91385F208352
:1034100031834F5F5F4F9A014032510508F4A9CFC5
:1034200080919835909199358331910534F40196C6
:10343000809398359093993508951092983510920D
:10344000993508951F920F920FB60F9211240BB663
:103450000F922F933F934F935F936F937F938F932D
:103460009F93AF93BF93EF93FF93E0E0F1E08189E7
:103470008061818B8AED95E30E94B619FF91EF91EF
:10348000BF91AF919F918F917F916F915F914F917C
:103490003F912F910F900BBE0F900FBE0F901F907A
:1034A00018951F920F920FB60F9211240BB60F9220
:1034B0002F933F934F935F936F937F938F939F933C
:1034C000AF93BF93EF93FF93E0E0F1E081A18061C0
:1034D00081A38AE995E30E94B619FF91EF91BF910C
:1034E000AF919F918F917F916F915F914F913F919C
:1034F0002F910F900BBE0F900FBE0F901F9018953D
:10350000E0E0F2E081E08083118290E1928393E039
:10351000948399E3938380A385E581A312A2089500
:10352000E0E2F3E094E0908381E0818312821382F1
:1035300080818160808390932106089561E080E01E
:1035400099E00E94900163E080E099E00E949C0174
:1035500088EE93E0809326099093270980ED80936D
:103560008001089561E080E499E00E94960163E0A3
:1035700080E499E00E94A20188EE93E080936609BE
:103580009093670988ED80938701089580911D3697
:1035900090911E36892B91F40E94DD0180931D3697
:1035A00090931E36E0E0F1E0108280E48083809109
:1035B000000186FDFCCF8CE88093000108950E94F5
:1035C000C61AE0E0F1E0168A81898160818B85E28C
:1035D000808B69ED628B838B40E450E0448B558B8C
:1035E0002AED35E3208F318F128E38E3348F23E0BC
:1035F000258F168E16A291A1916091A380A362A33C
:1036000083A344A355A38AE995E380A791A712A6B3
:1036100034A725A716A680898068808B80A1806842
:1036200080A341E050E060E070E080911D36909111
:103630001E360E94BA0208950E94C61AE0E0F1E028
:1036400016AA81A9816081AB75E270AB6DE962ABAE
:1036500030E133AB40E450E044AB55AB24E220AF63
:1036600092E091AF12AEA9E8B6E3A4AFB5AF16AE43
:1036700010924601A1E4B1E08C9181608C93A0E4AA
:10368000B1E07C9360934201309343014093440145
:1036900050934501209348019093490110924A01AB
:1036A00089EC96E380934C0190934D0110924E016A
:1036B00080A9806880AB8C9180688C9341E050E059
:1036C00060E070E080911D3690911E360E94BA0233
:1036D00008958091780085FF05C080E2809378008E
:1036E00081E008958091780080FF05C081E080939B
:1036F000780082E008958091780084FF05C080E121
:103700008093780083E008958091780081FF05C060
:1037100082E08093780084E0089582E00895505814
:10372000BB27AA270E94A71B0C94211D0E94131DD2
:1037300038F00E941A1D20F039F49F3F19F426F446
:103740000C94101D0EF4E095E7FB0C940A1DE92F74
:103750000E94321D58F3BA17620773078407950752
:1037600020F079F4A6F50C94541D0EF4E0950B2E80
:10377000BA2FA02D0B01B90190010C01CA01A001C3
:103780001124FF27591B99F0593F50F4503E68F11E
:103790001A16F040A22F232F342F4427585FF3CF5F
:1037A000469537952795A795F0405395C9F77EF430
:1037B0001F16BA0B620B730B840BBAF09150A1F079
:1037C000FF0FBB1F661F771F881FC2F70EC0BA0FFF
:1037D000621F731F841F48F4879577956795B79587
:1037E000F7959E3F08F0B0CF9395880F08F0992782
:1037F000EE0F9795879508950E94E61C08F481E0E6
:1038000008950E94151C0C94211D0E941A1D58F049
:103810000E94131D40F029F45F3F29F00C940A1D0B
:1038200051110C94551D0C94101D0E94321D68F30B
:103830009923B1F3552391F3951B550BBB27AA2769
:1038400062177307840738F09F5F5F4F220F331FA3
:10385000441FAA1FA9F335D00E2E3AF0E0E832D06B
:1038600091505040E695001CCAF72BD0FE2F29D06E
:10387000660F771F881FBB1F261737074807AB0740
:10388000B0E809F0BB0B802DBF01FF2793585F4FB5
:103890003AF09E3F510578F00C940A1D0C94551D8A
:1038A0005F3FE4F3983ED4F3869577956795B79597
:1038B000F7959F5FC9F7880F911D9695879597F9A2
:1038C0000895E1E0660F771F881FBB1F621773071B
:1038D0008407BA0720F0621B730B840BBA0BEE1F30
:1038E00088F7E09508950E947A1C6894B1110C94B1
:1038F000551D08950E943A1D88F09F5798F0B92FE2
:103900009927B751B0F0E1F0660F771F881F991F14
:103910001AF0BA95C9F714C0B13091F00E94541D45
:10392000B1E008950C94541D672F782F8827B85F55
:1039300039F0B93FCCF3869577956795B395D9F76C
:103940003EF490958095709561957F4F8F4F9F4F76
:103950000895E89409C097FB3EF490958095709582
:1039600061957F4F8F4F9F4F9923A9F0F92F96E9CB
:10397000BB279395F695879577956795B795F11140
:10398000F8CFFAF4BB0F11F460FF1BC06F5F7F4FDD
:103990008F4F9F4F16C0882311F096E911C07723EF
:1039A00021F09EE8872F762F05C0662371F096E8F8
:1039B000862F70E060E02AF09A95660F771F881FC7
:1039C000DAF7880F9695879597F90895990F00086B
:1039D000550FAA0BE0E8FEEF16161706E807F907E1
:1039E000C0F012161306E407F50798F0621B730B7C
:1039F000840B950B39F40A2661F0232B242B252BFD
:103A000021F408950A2609F4A140A6958FEF811D9F
:103A1000811D089597F99F6780E870E060E0089540
:103A20009FEF80EC089500240A94161617061806D6
:103A30000906089500240A941216130614060506B2
:103A40000895092E0394000C11F4882352F0BB0F43
:103A500040F4BF2B11F460FF04C06F5F7F4F8F4FA6
:103A60009F4F089557FD9058440F551F59F05F3FE1
:103A700071F04795880F97FB991F61F09F3F79F090
:103A800087950895121613061406551FF2CF469512
:103A9000F1DF08C0161617061806991FF1CF869594
:103AA0007105610508940895E894BB276627772778
:103AB000CB0197F908950E94E61C08F48FEF089552
:103AC0000E94731D0C94211D0E94131D38F00E944A
:103AD0001A1D20F0952311F00C940A1D0C94101D52
:103AE00011240C94551D0E94321D70F3959FC1F353
:103AF000950F50E0551F629FF001729FBB27F00D9C
:103B0000B11D639FAA27F00DB11DAA1F649F6627F0
:103B1000B00DA11D661F829F2227B00DA11D621F3F
:103B2000739FB00DA11D621F839FA00D611D221FF9
:103B3000749F3327A00D611D231F849F600D211DDD
:103B4000822F762F6A2F11249F5750409AF0F1F060
:103B500088234AF0EE0FFF1FBB1F661F771F881FC9
:103B600091505040A9F79E3F510580F00C940A1DDA
:103B70000C94551D5F3FE4F3983ED4F386957795FA
:103B80006795B795F795E7959F5FC1F7FE2B880F6F
:103B9000911D9695879597F90895EE0FFF1F881F41
:103BA0008BBF0790F691E02D1994FB01DC0102C058
:103BB00001900D9241505040D8F70895DC0101C0AA
:103BC0006D9341505040E0F70895BB274A3031F4DF
:103BD000992322F4BDE2909581959F4F0C94F11D9D
:103BE000BB27FB015527AA27880F991FAA1FA417D7
:103BF00010F0A41B83955051B9F7A05DAA3308F0CB
:103C0000A95DA193009779F7B111B1931192CB01FE
:103C10000C940A1EDC01FC01672F71917723E1F7F8
:103C2000329704C07C916D9370836291AE17BF0789
:083C3000C8F30895F894FFCFDA
:103C380049444C4500546D722053766300467265C2
:103C48006552544F532031302E302E3100454455A3
:103C5800426F61726420312E300051414D4445431A
:103C680047454E2D42617365005265736574526510
:103C780061736F6E3A2025640064697370557064CF
:103C8800617465000000C80087013802D30253033D
:103C9800B103EB03FF03EB03B1035303D302380271
:103CA8008701C800000038FF79FEC8FD2DFDADFC76
:103CB8004FFC15FC01FC15FC4FFCADFC2DFDC8FDAF
:103CC80079FE38FF0000C80087013802D302530389
:103CD800B103EB03FF03EB03B1035303D302380231
:103CE8008701C800000038FF79FEC8FD2DFDADFC36
:103CF8004FFC15FC01FC15FC4FFCADFC2DFDC8FD6F
:103D080079FE38FF00008F010F037104A705A6068E
:103D18006307D807FF07D8076307A606A705710436
:103D28000F038F01000071FEF1FC8FFB59FA5AF95D
:103D38009DF828F801F828F89DF85AF959FA8FFBE8
:103D4800F1FC71FE00008F010F037104A705A606A0
:103D58006307D807FF07D8076307A606A7057104F6
:103D68000F038F01000071FEF1FC8FFB59FA5AF91D
:103D78009DF828F801F828F89DF85AF959FA8FFBA8
:043D8800F1FC71FEDB
:00000001FF
